:020000040000FA
:0400000080EF38F065
:106EF20083500F0B1200808400F080941200020E67
:106F02005FEC39F01200B8C060F0B9C061F0000166
:106F1200626B636B12000001B96F83CFB8F0F00EA1
:106F22000001B8170001B9510F0B0001B811836EAF
:106F320012000001B851BA03F3CFBCF0F4CFBDF098
:106F4200B851BB03F350BD27B951BA03F350BD2763
:106F5200BCC0B8F0BDC0B9F012002AEC39F0280E5E
:106F62005FEC39F00F0E5FEC39F0010E5FEC39F097
:106F7200060E5FEC39F0800E5FEC39F004EC3AF06B
:106F820012000001B96FB9C0B8F00001B847B847A4
:106F9200C250B819C30BB819C26EC282C2B2D4EFC2
:106FA20037F0D6EF37F0CFEF37F0C45012000001C0
:106FB200BA6F12EC38F0000E956E8080809200015C
:106FC200BA390F0B8CEC37F07CEC37F00001BA5178
:106FD2008CEC37F07CEC37F00F0E956E12EC38F03B
:106FE20012000804040A111F1100000E1F1F1F1FA8
:106FF2000E000814040E1F1F1F0E0A110A0E1B0E8C
:1070020004040A0A0A0E1B111F15040A0E111F108E
:107012000E0008040E010F110F00040A0E010F11D9
:107022000F0080908082808400F079EC37F00001BC
:10703200B86FB839F00B0001B96F8094808400F00A
:1070420079EC37F00001B91380940001B9BF2CEF3D
:1070520038F02EEF38F014EF38F080920001B95179
:107062007F0B1200000E956E000E7F6E9368000E6D
:107072007E6E000E926ECD80CECFB8F0CFCFB9F03B
:1070820084EC37F07E8EC280000EC16EC09EC70EA9
:10709200C016F80EC016D58ED59CD59AD596D55069
:1070A200F80B0209D56EF28AF294F28CF28E12007B
:1070B200000E0001C06F6DEF38F00001C0510001F9
:1070C200BE25D96E0001000E0001BF21DA6EDF502D
:1070D200A9EC38F00001C02B0001C0510001BE250F
:1070E200D96E0001000E0001BF21DA6EDF50D8A474
:1070F2007DEF38F07FEF38F05EEF38F01200E40EEB
:10710200F66E6F0EF76E000EF86E01EE54F010EE92
:1071120040F00900F5CFEEFFE550E150FAE1FC0E38
:10712200F66E710EF76E000EF86E00EE60F010EE65
:1071320058F00900F5CFEEFFE550E150FAE101EE1B
:1071420000F0540EEE6AE806FDE100018AEF3BF022
:107152000001BB6F0001BB51D8EC37F00001BC6FDE
:10716200C2EF38F0C00E5FEC39F0D2EF38F0940E77
:107172005FEC39F0D2EF38F0D40E5FEC39F0D2EF99
:1071820038F00001BC51940AD8B4B3EF38F0540A75
:10719200D8B4BDEF38F0140AD8B4B8EF38F0D2EF53
:1071A20038F0120060C0B8F061C0B9F062C0BAF045
:1071B20063C0BBF06D0E0001BC6F4E0EBD6FC60EFC
:1071C200BE6F410EBF6F95EC39F0B8C060F0B9C028
:1071D20061F0BAC062F0BBC063F0390E00016027F3
:1071E200300E6123000E6223000E6323FF0E621530
:1071F200C46F7F0E6315C56F1200010000002020CE
:10720200202020202020202020202020202020207C
:10721200202000202020202020202020202020208C
:10722200202020202020200020202020202020207C
:10723200202020202020202020202020002020206C
:10724200202020202020202020202020202020203C
:107252002000000E956E0D0E0001BA6FFB0EE82E97
:10726200FED7BA2FFCD700F000F080908092030E78
:107272008CEC37F07CEC37F0030EE82EFED700F0F2
:10728200030E8CEC37F07CEC37F0030EE82EFED7C1
:1072920000F0030E8CEC37F07CEC37F0030EE82E96
:1072A200FED700F0020E8CEC37F07CEC37F0030EC8
:1072B200E82EFED700F00F0E956E12000001BA6F95
:1072C20012EC38F0000E956E809080920001BA396F
:1072D2000F0B8CEC37F07CEC37F00001BA518CECE0
:1072E20037F07CEC37F0030EE82EFED700F00001F9
:1072F200BA05D8B47FEF39F081EF39F08BEF39F06E
:10730200020E0001BA19D8A489EF39F08BEF39F0D7
:1073120090EF39F0A60EE82EFED700F000F00F0E27
:10732200956E12EC38F01200000E0001C06F000ED4
:10733200C16F000EC26F000EC36FB8A1A3EF39F088
:10734200A5EF39F0ADEF39F0BC51C027BD51C123D3
:10735200BE51C223BF51C323D890BC37BD37BE37FD
:10736200BF37D890BB33BA33B933B833B851B91138
:10737200BA11BB11D8A4C0EF39F0C2EF39F09EEFB9
:1073820039F0C0C0B8F0C1C0B9F0C2C0BAF0C3C0D1
:10739200BBF012000001BC6FEFEF39F00001BC51ED
:1073A2007F0F80095FEC39F003EF3AF00001BC5126
:1073B200BF0F80095FEC39F003EF3AF00001BC51D6
:1073C200930F80095FEC39F003EF3AF00001BC51F2
:1073D200D30F80095FEC39F003EF3AF00001BB51A3
:1073E200010AD8B4CFEF39F0030AD8B4D7EF39F095
:1073F200010AD8B4DFEF39F0070AD8B4E7EF39F061
:1074020003EF3AF01200400E5FEC39F0000E00017B
:10741200BD6F070E0001BD6511EF3AF013EF3AF0B0
:1074220015EF3AF052EF3AF0000E0001BE6F070E70
:107432000001BE651FEF3AF021EF3AF023EF3AF078
:1074420047EF3AF00001BD51080D540E0001BB6F29
:10745200010EBC6FF350BB27F450BC230001BE5198
:107462000001BB25D96E0001000E0001BC21DA6EBD
:10747200DF50D8EC37F00001BE2B070E0001BE65CD
:1074820045EF3AF047EF3AF023EF3AF00001BD2B17
:10749200070E0001BD6550EF3AF052EF3AF015EFDA
:1074A2003AF080EC37F01200000E0001CB6FC7BF3C
:1074B2005FEF3AF05DEF3AF065EF3AF0C66DC71F45
:1074C200D8B0C72B010ECB6FC9BF6CEF3AF06AEF91
:1074D2003AF070EF3AF0C86DC91FD8B0C92BC85145
:1074E200C911D8B477EF3AF079EF3AF09DEF3AF05C
:1074F200010ECA6F81EF3AF0D890C837C937CA2B4C
:10750200C9AF86EF3AF088EF3AF07DEF3AF0C85112
:10751200C65DC951C759D8A091EF3AF093EF3AF03E
:1075220097EF3AF0C851C65FC951C75BD890C933CB
:10753200C833CA2F88EF3AF0CB51D8B4A3EF3AF050
:10754200A5EF3AF0A9EF3AF0C66DC71FD8B0C72B26
:10755200C6C0C6F0C7C0C7F01200070EC2EC37F0B3
:107562000001BE6F960EBE65B9EF3AF0BBEF3AF07E
:10757200C0EF3AF0BAC0D9FFBBC0DAFFDF2A070E6C
:10758200C2EC37F00001BE6F640EBE61CBEF3AF081
:10759200CDEF3AF0D2EF3AF0BAC0D9FFBBC0DAFF72
:1075A200DF06060EC2EC37F00001BE6F960EBE6516
:1075B200DDEF3AF0DFEF3AF0E4EF3AF0BCC0D9FF8A
:1075C200BDC0DAFFDF06060EC2EC37F00001BE6F67
:1075D200640EBE61EFEF3AF0F1EF3AF0F6EF3AF0F7
:1075E200BCC0D9FFBDC0DAFFDF2ABAC0D9FFBBC019
:1075F200DAFF130EDF6400EF3BF002EF3BF008EF1F
:107602003BF0BAC0D9FFBBC0DAFF000EDF6EBCC0D0
:10761200D9FFBDC0DAFF030EDF6412EF3BF014EFB7
:107622003BF01AEF3BF0BCC0D9FFBDC0DAFF000E41
:10763200DF6E1200000E0001D16F71EF3BF0D3EC50
:1076420038F00001C451030B0001D36FD3EC38F0C2
:10765200C4C0C6F0C5C0C7F0000E0001C96F140E49
:10766200C86F55EC3AF00001C6510001D26F00011B
:10767200D351150D640E0001CE6F000ECF6FF35083
:10768200CE27F450CF230001D2510001CE25D96E6E
:107692000001000E0001CF21DA6E200EDE18D8A400
:1076A20055EF3BF057EF3BF020EF3BF00001D35199
:1076B200150D640E0001CE6F000ECF6FF350CE2772
:1076C200F450CF230001D2510001CE25D96E000122
:1076D200000E0001CF21DA6E020EDF6E0001D12B07
:1076E2000001D1510001CE6FCF6B0001CC510001DE
:1076F200CE5DCF51800AD06F0001CD51800A0001CA
:10770200D059D8A087EF3BF089EF3BF020EF3BF058
:107712001200010E0001D56F010E0001D86F33EC8B
:1077220038F0AEEC37F0B5EC3CF0000E0001CD6F56
:10773200050ECC6F1BEC3BF006EC3CF0000E00019A
:10774200D76F000ED66F0001D7BFB1EF3BF0D75114
:1077520009E1040ED65DD8A0B1EF3BF0B3EF3BF0E8
:10776200B5EF3BF0E5EF3BF00001D6290001BB6F1E
:10777200010ECBEC39F0D6C0B8F0D7C0B9F0000E8C
:107782000001BB6F150EBA6F9AEC37F0640E000160
:10779200B8250001BE6F000E0001B9210001BF6FC4
:1077A20059EC38F00001D64BD72B0001D7BFE3EFDD
:1077B2003BF0D75109E1040ED65DD8A0E3EF3BF0D0
:1077C200E5EF3BF0B5EF3BF0D80E0001BA6F000ECB
:1077D200BB6FD50E0001BC6F000EBD6FAEEC3AF070
:1077E2000001D5290001BB6F0001D829CBEC39F08B
:1077F200210E0001D46F760EE82EFED7D42FFCD7CF
:1078020000F0E5EF3BF000EF00F0000E0001CB6F5F
:10781200030E0001CB6510EF3CF012EF3CF014EFC9
:107822003CF0B4EF3CF0000E0001CC6F130E0001EF
:10783200CC651EEF3CF020EF3CF022EF3CF0A9EFCC
:107842003CF00001CB51150D640E0001C86F000E13
:10785200C96FF350C827F450C9230001CC5100016D
:10786200C825D96E0001000E0001C921DA6E020E90
:10787200DE18D8B43FEF3CF041EF3CF09EEF3CF015
:10788200CBC0BEF00001BF6BCCC0C0F00001C16B29
:1078920084EC3DF00001C86F300EC8270001CB51C7
:1078A200150D640E0001C96F000ECA6FF350C9278F
:1078B200F450CA230001CC510001C925D96E000140
:1078C200000E0001CA21DA6EC8C0DFFF0001CB51F1
:1078D200150D640E0001C86F000EC96FF350C82762
:1078E200F450C9230001CC510001C825D96E000112
:1078F200000E0001C921DA6E300EDE18D8A484EF22
:107902003CF086EF3CF09EEF3CF00001CB51150DB0
:10791200640E0001C86F000EC96FF350C827F450FF
:10792200C9230001CC510001C825D96E0001000E07
:107932000001C921DA6E200EDF6E0001CC2B130E7E
:107942000001CC65A7EF3CF0A9EF3CF022EF3CF040
:107952000001CB2B030E0001CB65B2EF3CF0B4EF7C
:107962003CF014EF3CF01200000E0001C66F000E56
:10797200C56F0001C6BFC7EF3CF0C65109E1040E56
:10798200C55DD8A0C7EF3CF0C9EF3CF0CBEF3CF0AF
:107992003DEF3DF0000E0001C46F000EC36F000109
:1079A200C4BFDDEF3CF0C45109E1140EC35DD8A0A1
:1079B200DDEF3CF0DFEF3CF0E1EF3CF017EF3DF0A4
:1079C200C5C0B8F0C6C0B9F0000E0001BB6F150EFD
:1079D200BA6F9AEC37F0000E0001C16F010EC26F50
:1079E2000001B8510001C1270001B9510001C223B1
:1079F2000001C3510001C125D96E0001C45100012B
:107A0200C221DA6E010EDF6E0001C34BC42B0001EE
:107A1200C4BF15EF3DF0C45109E1140EC35DD8A0F7
:107A220015EF3DF017EF3DF0E1EF3CF0C5C0B8F0C7
:107A3200C6C0B9F0000E0001BB6F150EBA6F9AEC0A
:107A420037F0140E0001B825D96E010EB921DA6E95
:107A5200000EDF6E0001C54BC62B0001C6BF3BEF17
:107A62003DF0C65109E1040EC55DD8A03BEF3DF0E3
:107A72003DEF3DF0CBEF3CF0000E0001C86F000E71
:107A8200C76F0001C8BF4FEF3DF0C85109E1040EB6
:107A9200C75DD8A04FEF3DF051EF3DF053EF3DF001
:107AA20083EF3DF00001C7290001BB6F010ECBEC53
:107AB20039F0C7C0B8F0C8C0B9F0000E0001BB6F02
:107AC200150EBA6F9AEC37F0000E0001B8250001CE
:107AD200BE6F010E0001B9210001BF6F59EC38F0F1
:107AE2000001C74BC82B0001C8BF81EF3DF0C85150
:107AF20009E1040EC75DD8A081EF3DF083EF3DF0B0
:107B020053EF3DF01200000E0001C76FBEC0B8F087
:107B1200BFC0B9F0000E0001BB6F150EBA6F9AEC30
:107B220037F0EA0E0001C26FFF0EC36F640EC46F1E
:107B3200000EC56FC251C427C351C5230001B851FD
:107B42000001C4270001B9510001C5230001C05141
:107B52000001C425D96E0001C1510001C521DA6EB0
:107B6200020EDE18D8A4B8EF3DF0BAEF3DF0D6EF22
:107B72003DF0FF0E0001BE25FF0EBF21800BD8A4F1
:107B8200C5EF3DF0C7EF3DF0D6EF3DF0FF0E00012F
:107B9200C025FF0EC121800BD8A4D2EF3DF0D4EF57
:107BA2003DF0D6EF3DF00001C72BBEC0B8F0BFC01C
:107BB200B9F0000E0001BB6F150EBA6F9AEC37F0E8
:107BC200FF0E0001C26FFF0EC36F640EC46F000E82
:107BD200C56FC251C427C351C5230001B85100016A
:107BE200C4270001B9510001C5230001C0510001A1
:107BF200C425D96E0001C1510001C521DA6E020E01
:107C0200DE18D8A407EF3EF009EF3EF018EF3EF081
:107C1200FF0E0001C025FF0EC121800BD8A414EF76
:107C22003EF016EF3EF018EF3EF00001C72BBEC04B
:107C3200B8F0BFC0B9F0000E0001BB6F150EBA6FED
:107C42009AEC37F0640E0001C26F000EC36F140E7F
:107C5200C227000EC3230001B8510001C227000150
:107C6200B9510001C3230001C0510001C225D96EE0
:107C72000001C1510001C321DA6E020EDE18D8A440
:107C820045EF3EF047EF3EF06EEF3EF0FF0E000193
:107C9200C025FF0EC121800BD8A452EF3EF054EF55
:107CA2003EF06EEF3EF0010E0001BE250001C26FF4
:107CB200000E0001BF210001C36FC3BF6CEF3EF095
:107CC200C35107E1140EC25DD8B06AEF3EF06CEF0B
:107CD2003EF06EEF3EF00001C72BBEC0B8F0BFC051
:107CE200B9F0000E0001BB6F150EBA6F9AEC37F0B7
:107CF200EB0E0001C26FFF0EC36F640EC46F000E65
:107D0200C56FC251C427C351C5230001B851000138
:107D1200C4270001B9510001C5230001C05100016F
:107D2200C425D96E0001C1510001C521DA6E020ECF
:107D3200DE18D8A49FEF3EF0A1EF3EF0B0EF3EF088
:107D4200FF0E0001BE25FF0EBF21800BD8A4ACEFB1
:107D52003EF0AEEF3EF0B0EF3EF00001C72BBEC0EA
:107D6200B8F0BFC0B9F0000E0001BB6F150EBA6FBC
:107D72009AEC37F0EC0E0001C26FFF0EC36F640E77
:107D8200C46F000EC56FC251C427C351C523000181
:107D9200B8510001C4270001B9510001C5230001F7
:107DA200C0510001C425D96E0001C1510001C52195
:107DB200DA6E020EDE18D8A4E1EF3EF0E3EF3EF0F9
:107DC2000AEF3FF0FF0E0001BE25FF0EBF21800B20
:107DD200D8A4EEEF3EF0F0EF3EF00AEF3FF0010ED6
:107DE2000001C0250001C26F000E0001C121000187
:107DF200C36FC3BF08EF3FF0C35107E1140EC25D6A
:107E0200D8B006EF3FF008EF3FF00AEF3FF0000175
:107E1200C72BBEC0B8F0BFC0B9F0000E0001BB6FE7
:107E2200150EBA6F9AEC37F0640E0001C26F000EA5
:107E3200C36F010EC227000EC3230001B851000117
:107E4200C2270001B9510001C3230001C051000142
:107E5200C225D96E0001C1510001C321DA6E020EA2
:107E6200DE18D8A437EF3FF039EF3FF053EF3FF081
:107E7200010E0001C0250001C26F000E0001C121E8
:107E82000001C36FC3BF51EF3FF0C35107E1140EAE
:107E9200C25DD8B04FEF3FF051EF3FF053EF3FF0EC
:107EA2000001C72BBEC0B8F0BFC0B9F0000E000180
:107EB200BB6F150EBA6F9AEC37F0640E0001C26FF9
:107EC200000EC36F160EC227000EC3230001B85165
:107ED2000001C2270001B9510001C3230001C051B2
:107EE2000001C225D96E0001C1510001C321DA6E21
:107EF200020EDE18D8A480EF3FF082EF3FF0B4EF1D
:107F02003FF0010E0001C0250001C26F000E00010A
:107F1200C1210001C36FC3BF9AEF3FF0C35107E114
:107F2200140EC25DD8B098EF3FF09AEF3FF0B4EF75
:107F32003FF0010E0001BE250001C26F000E0001DC
:107F4200BF210001C36FC3BFB2EF3FF0C35107E1CE
:107F5200140EC25DD8B0B0EF3FF0B2EF3FF0B4EF15
:107F62003FF00001C72BBEC0B8F0BFC0B9F0000E91
:107F72000001BB6F150EBA6F9AEC37F0640E000168
:107F8200C26F000EC36F150EC227000EC32300017D
:107F9200B8510001C2270001B9510001C3230001F9
:107FA200C0510001C225D96E0001C1510001C32197
:107FB200DA6E020EDE18D8A4E1EF3FF0E3EF3FF0F5
:107FC200FDEF3FF0010E0001BE250001C26F000E61
:107FD2000001BF210001C36FC3BFFBEF3FF0C351DC
:107FE20007E1140EC25DD8B0F9EF3FF0FBEF3FF0AE
:0E7FF200FDEF3FF00001C72B0001C751120048
:020000040020DA
:08000000FFFFFFFFFFFFFFFF00
:020000040030CA
:0E000000FF081F1EFF8B81FF0FC00FE00F4097
:00000001FF
